{
  "_format": "hh-sol-artifact-1",
  "contractName": "HealthcareSystem",
  "sourceName": "contracts/HealthcareSystem.sol",
  "abi": [
    {
      "inputs": [],
      "stateMutability": "nonpayable",
      "type": "constructor"
    },
    {
      "anonymous": false,
      "inputs": [
        {
          "indexed": true,
          "internalType": "address",
          "name": "patientAddress",
          "type": "address"
        },
        {
          "indexed": false,
          "internalType": "string",
          "name": "ipfsHash",
          "type": "string"
        }
      ],
      "name": "MedicalHistoryUpdated",
      "type": "event"
    },
    {
      "anonymous": false,
      "inputs": [
        {
          "indexed": true,
          "internalType": "address",
          "name": "patientAddress",
          "type": "address"
        },
        {
          "indexed": false,
          "internalType": "string",
          "name": "name",
          "type": "string"
        }
      ],
      "name": "PatientRegistered",
      "type": "event"
    },
    {
      "anonymous": false,
      "inputs": [
        {
          "indexed": true,
          "internalType": "address",
          "name": "patientAddress",
          "type": "address"
        },
        {
          "indexed": false,
          "internalType": "address",
          "name": "providerAddress",
          "type": "address"
        }
      ],
      "name": "ProviderAuthorized",
      "type": "event"
    },
    {
      "anonymous": false,
      "inputs": [
        {
          "indexed": true,
          "internalType": "address",
          "name": "patientAddress",
          "type": "address"
        },
        {
          "indexed": false,
          "internalType": "address",
          "name": "providerAddress",
          "type": "address"
        }
      ],
      "name": "ProviderRevoked",
      "type": "event"
    },
    {
      "inputs": [
        {
          "internalType": "address",
          "name": "patientAddress",
          "type": "address"
        },
        {
          "internalType": "address",
          "name": "providerAddress",
          "type": "address"
        }
      ],
      "name": "authorizeProvider",
      "outputs": [],
      "stateMutability": "nonpayable",
      "type": "function"
    },
    {
      "inputs": [
        {
          "internalType": "address",
          "name": "patientAddress",
          "type": "address"
        }
      ],
      "name": "getMedicalHistory",
      "outputs": [
        {
          "internalType": "string",
          "name": "",
          "type": "string"
        }
      ],
      "stateMutability": "view",
      "type": "function"
    },
    {
      "inputs": [
        {
          "internalType": "address",
          "name": "patientAddress",
          "type": "address"
        }
      ],
      "name": "getPatientDetails",
      "outputs": [
        {
          "internalType": "string",
          "name": "",
          "type": "string"
        },
        {
          "internalType": "uint256",
          "name": "",
          "type": "uint256"
        },
        {
          "internalType": "string",
          "name": "",
          "type": "string"
        },
        {
          "internalType": "string",
          "name": "",
          "type": "string"
        }
      ],
      "stateMutability": "view",
      "type": "function"
    },
    {
      "inputs": [],
      "name": "owner",
      "outputs": [
        {
          "internalType": "address",
          "name": "",
          "type": "address"
        }
      ],
      "stateMutability": "view",
      "type": "function"
    },
    {
      "inputs": [
        {
          "internalType": "address",
          "name": "patientAddress",
          "type": "address"
        },
        {
          "internalType": "string",
          "name": "name",
          "type": "string"
        },
        {
          "internalType": "uint256",
          "name": "age",
          "type": "uint256"
        },
        {
          "internalType": "string",
          "name": "gender",
          "type": "string"
        }
      ],
      "name": "registerPatient",
      "outputs": [],
      "stateMutability": "nonpayable",
      "type": "function"
    },
    {
      "inputs": [
        {
          "internalType": "address",
          "name": "patientAddress",
          "type": "address"
        },
        {
          "internalType": "address",
          "name": "providerAddress",
          "type": "address"
        }
      ],
      "name": "revokeProvider",
      "outputs": [],
      "stateMutability": "nonpayable",
      "type": "function"
    },
    {
      "inputs": [
        {
          "internalType": "address",
          "name": "patientAddress",
          "type": "address"
        },
        {
          "internalType": "string",
          "name": "ipfsHash",
          "type": "string"
        }
      ],
      "name": "updateMedicalHistory",
      "outputs": [],
      "stateMutability": "nonpayable",
      "type": "function"
    }
  ],
  "bytecode": "0x6080604052348015600f57600080fd5b50336000806101000a81548173ffffffffffffffffffffffffffffffffffffffff021916908373ffffffffffffffffffffffffffffffffffffffff1602179055506118f28061005f6000396000f3fe608060405234801561001057600080fd5b506004361061007d5760003560e01c80638e9c148e1161005b5780638e9c148e146100ec578063a5e5f94014610108578063b123fb4314610124578063efe2ccc1146101405761007d565b8063084be11b146100825780635986de611461009e5780638da5cb5b146100ce575b600080fd5b61009c60048036038101906100979190610e86565b610173565b005b6100b860048036038101906100b39190610ec6565b6102cc565b6040516100c59190610f83565b60405180910390f35b6100d66104c2565b6040516100e39190610fb4565b60405180910390f35b61010660048036038101906101019190610e86565b6104e6565b005b610122600480360381019061011d9190611104565b610640565b005b61013e60048036038101906101399190611196565b610806565b005b61015a60048036038101906101559190610ec6565b610aad565b60405161016a9493929190611244565b60405180910390f35b818073ffffffffffffffffffffffffffffffffffffffff163373ffffffffffffffffffffffffffffffffffffffff16146101e2576040517f08c379a00000000000000000000000000000000000000000000000000000000081526004016101d990611310565b60405180910390fd5b60018060008573ffffffffffffffffffffffffffffffffffffffff1673ffffffffffffffffffffffffffffffffffffffff16815260200190815260200160002060040160008473ffffffffffffffffffffffffffffffffffffffff1673ffffffffffffffffffffffffffffffffffffffff16815260200190815260200160002060006101000a81548160ff0219169083151502179055508273ffffffffffffffffffffffffffffffffffffffff167fb3b6f6e18201133d5cef4ede0fc1c39f6d0cce4b39c7ce61e3497d3ba03bceed836040516102bf9190610fb4565b60405180910390a2505050565b6060600160008373ffffffffffffffffffffffffffffffffffffffff1673ffffffffffffffffffffffffffffffffffffffff16815260200190815260200160002060040160003373ffffffffffffffffffffffffffffffffffffffff1673ffffffffffffffffffffffffffffffffffffffff16815260200190815260200160002060009054906101000a900460ff16806103b1575060008054906101000a900473ffffffffffffffffffffffffffffffffffffffff1673ffffffffffffffffffffffffffffffffffffffff163373ffffffffffffffffffffffffffffffffffffffff16145b6103f0576040517f08c379a00000000000000000000000000000000000000000000000000000000081526004016103e7906113a2565b60405180910390fd5b600160008373ffffffffffffffffffffffffffffffffffffffff1673ffffffffffffffffffffffffffffffffffffffff168152602001908152602001600020600301805461043d906113f1565b80601f0160208091040260200160405190810160405280929190818152602001828054610469906113f1565b80156104b65780601f1061048b576101008083540402835291602001916104b6565b820191906000526020600020905b81548152906001019060200180831161049957829003601f168201915b50505050509050919050565b60008054906101000a900473ffffffffffffffffffffffffffffffffffffffff1681565b818073ffffffffffffffffffffffffffffffffffffffff163373ffffffffffffffffffffffffffffffffffffffff1614610555576040517f08c379a000000000000000000000000000000000000000000000000000000000815260040161054c90611310565b60405180910390fd5b6000600160008573ffffffffffffffffffffffffffffffffffffffff1673ffffffffffffffffffffffffffffffffffffffff16815260200190815260200160002060040160008473ffffffffffffffffffffffffffffffffffffffff1673ffffffffffffffffffffffffffffffffffffffff16815260200190815260200160002060006101000a81548160ff0219169083151502179055508273ffffffffffffffffffffffffffffffffffffffff167f61aae47e457f6b5f1441fd5a834972d523822d0185b0272360985b51d3d9c2f0836040516106339190610fb4565b60405180910390a2505050565b8160008054906101000a900473ffffffffffffffffffffffffffffffffffffffff1673ffffffffffffffffffffffffffffffffffffffff163373ffffffffffffffffffffffffffffffffffffffff1614806107245750600160008273ffffffffffffffffffffffffffffffffffffffff1673ffffffffffffffffffffffffffffffffffffffff16815260200190815260200160002060040160003373ffffffffffffffffffffffffffffffffffffffff1673ffffffffffffffffffffffffffffffffffffffff16815260200190815260200160002060009054906101000a900460ff165b610763576040517f08c379a000000000000000000000000000000000000000000000000000000000815260040161075a9061146e565b60405180910390fd5b81600160008573ffffffffffffffffffffffffffffffffffffffff1673ffffffffffffffffffffffffffffffffffffffff16815260200190815260200160002060030190816107b2919061163a565b508273ffffffffffffffffffffffffffffffffffffffff167fc644b7df91fd77795322f7dc88bab2186750b0ac442aab4c29874535783cb040836040516107f99190610f83565b60405180910390a2505050565b600260008573ffffffffffffffffffffffffffffffffffffffff1673ffffffffffffffffffffffffffffffffffffffff16815260200190815260200160002060009054906101000a900460ff1615610893576040517f08c379a000000000000000000000000000000000000000000000000000000000815260040161088a90611758565b60405180910390fd5b60008351116108d7576040517f08c379a00000000000000000000000000000000000000000000000000000000081526004016108ce906117c4565b60405180910390fd5b6000821161091a576040517f08c379a000000000000000000000000000000000000000000000000000000000815260040161091190611830565b60405180910390fd5b6001600260008673ffffffffffffffffffffffffffffffffffffffff1673ffffffffffffffffffffffffffffffffffffffff16815260200190815260200160002060006101000a81548160ff02191690831515021790555082600160008673ffffffffffffffffffffffffffffffffffffffff1673ffffffffffffffffffffffffffffffffffffffff16815260200190815260200160002060000190816109c1919061163a565b5081600160008673ffffffffffffffffffffffffffffffffffffffff1673ffffffffffffffffffffffffffffffffffffffff1681526020019081526020016000206001018190555080600160008673ffffffffffffffffffffffffffffffffffffffff1673ffffffffffffffffffffffffffffffffffffffff1681526020019081526020016000206002019081610a58919061163a565b508373ffffffffffffffffffffffffffffffffffffffff167fc85b128388b9c331a2a5485dce4cd0f3db9f7c279d327ce95d6d39d6c94644c784604051610a9f9190610f83565b60405180910390a250505050565b606060006060808473ffffffffffffffffffffffffffffffffffffffff163373ffffffffffffffffffffffffffffffffffffffff161480610b39575060008054906101000a900473ffffffffffffffffffffffffffffffffffffffff1673ffffffffffffffffffffffffffffffffffffffff163373ffffffffffffffffffffffffffffffffffffffff16145b80610bcd5750600160008673ffffffffffffffffffffffffffffffffffffffff1673ffffffffffffffffffffffffffffffffffffffff16815260200190815260200160002060040160003373ffffffffffffffffffffffffffffffffffffffff1673ffffffffffffffffffffffffffffffffffffffff16815260200190815260200160002060009054906101000a900460ff165b610c0c576040517f08c379a0000000000000000000000000000000000000000000000000000000008152600401610c039061189c565b60405180910390fd5b6000600160008773ffffffffffffffffffffffffffffffffffffffff1673ffffffffffffffffffffffffffffffffffffffff16815260200190815260200160002090508060000181600101548260020183600301838054610c6c906113f1565b80601f0160208091040260200160405190810160405280929190818152602001828054610c98906113f1565b8015610ce55780601f10610cba57610100808354040283529160200191610ce5565b820191906000526020600020905b815481529060010190602001808311610cc857829003601f168201915b50505050509350818054610cf8906113f1565b80601f0160208091040260200160405190810160405280929190818152602001828054610d24906113f1565b8015610d715780601f10610d4657610100808354040283529160200191610d71565b820191906000526020600020905b815481529060010190602001808311610d5457829003601f168201915b50505050509150808054610d84906113f1565b80601f0160208091040260200160405190810160405280929190818152602001828054610db0906113f1565b8015610dfd5780601f10610dd257610100808354040283529160200191610dfd565b820191906000526020600020905b815481529060010190602001808311610de057829003601f168201915b505050505090509450945094509450509193509193565b6000604051905090565b600080fd5b600080fd5b600073ffffffffffffffffffffffffffffffffffffffff82169050919050565b6000610e5382610e28565b9050919050565b610e6381610e48565b8114610e6e57600080fd5b50565b600081359050610e8081610e5a565b92915050565b60008060408385031215610e9d57610e9c610e1e565b5b6000610eab85828601610e71565b9250506020610ebc85828601610e71565b9150509250929050565b600060208284031215610edc57610edb610e1e565b5b6000610eea84828501610e71565b91505092915050565b600081519050919050565b600082825260208201905092915050565b60005b83811015610f2d578082015181840152602081019050610f12565b60008484015250505050565b6000601f19601f8301169050919050565b6000610f5582610ef3565b610f5f8185610efe565b9350610f6f818560208601610f0f565b610f7881610f39565b840191505092915050565b60006020820190508181036000830152610f9d8184610f4a565b905092915050565b610fae81610e48565b82525050565b6000602082019050610fc96000830184610fa5565b92915050565b600080fd5b600080fd5b7f4e487b7100000000000000000000000000000000000000000000000000000000600052604160045260246000fd5b61101182610f39565b810181811067ffffffffffffffff821117156110305761102f610fd9565b5b80604052505050565b6000611043610e14565b905061104f8282611008565b919050565b600067ffffffffffffffff82111561106f5761106e610fd9565b5b61107882610f39565b9050602081019050919050565b82818337600083830152505050565b60006110a76110a284611054565b611039565b9050828152602081018484840111156110c3576110c2610fd4565b5b6110ce848285611085565b509392505050565b600082601f8301126110eb576110ea610fcf565b5b81356110fb848260208601611094565b91505092915050565b6000806040838503121561111b5761111a610e1e565b5b600061112985828601610e71565b925050602083013567ffffffffffffffff81111561114a57611149610e23565b5b611156858286016110d6565b9150509250929050565b6000819050919050565b61117381611160565b811461117e57600080fd5b50565b6000813590506111908161116a565b92915050565b600080600080608085870312156111b0576111af610e1e565b5b60006111be87828801610e71565b945050602085013567ffffffffffffffff8111156111df576111de610e23565b5b6111eb878288016110d6565b93505060406111fc87828801611181565b925050606085013567ffffffffffffffff81111561121d5761121c610e23565b5b611229878288016110d6565b91505092959194509250565b61123e81611160565b82525050565b6000608082019050818103600083015261125e8187610f4a565b905061126d6020830186611235565b818103604083015261127f8185610f4a565b905081810360608301526112938184610f4a565b905095945050505050565b7f4f6e6c79207468652070617469656e742063616e20706572666f726d2074686960008201527f7320616374696f6e000000000000000000000000000000000000000000000000602082015250565b60006112fa602883610efe565b91506113058261129e565b604082019050919050565b60006020820190508181036000830152611329816112ed565b9050919050565b7f4e6f7420617574686f72697a656420746f2076696577206d65646963616c206860008201527f6973746f72790000000000000000000000000000000000000000000000000000602082015250565b600061138c602683610efe565b915061139782611330565b604082019050919050565b600060208201905081810360008301526113bb8161137f565b9050919050565b7f4e487b7100000000000000000000000000000000000000000000000000000000600052602260045260246000fd5b6000600282049050600182168061140957607f821691505b60208210810361141c5761141b6113c2565b5b50919050565b7f4e6f7420617574686f72697a6564000000000000000000000000000000000000600082015250565b6000611458600e83610efe565b915061146382611422565b602082019050919050565b600060208201905081810360008301526114878161144b565b9050919050565b60008190508160005260206000209050919050565b60006020601f8301049050919050565b600082821b905092915050565b6000600883026114f07fffffffffffffffffffffffffffffffffffffffffffffffffffffffffffffffff826114b3565b6114fa86836114b3565b95508019841693508086168417925050509392505050565b6000819050919050565b600061153761153261152d84611160565b611512565b611160565b9050919050565b6000819050919050565b6115518361151c565b61156561155d8261153e565b8484546114c0565b825550505050565b600090565b61157a61156d565b611585818484611548565b505050565b5b818110156115a95761159e600082611572565b60018101905061158b565b5050565b601f8211156115ee576115bf8161148e565b6115c8846114a3565b810160208510156115d7578190505b6115eb6115e3856114a3565b83018261158a565b50505b505050565b600082821c905092915050565b6000611611600019846008026115f3565b1980831691505092915050565b600061162a8383611600565b9150826002028217905092915050565b61164382610ef3565b67ffffffffffffffff81111561165c5761165b610fd9565b5b61166682546113f1565b6116718282856115ad565b600060209050601f8311600181146116a45760008415611692578287015190505b61169c858261161e565b865550611704565b601f1984166116b28661148e565b60005b828110156116da578489015182556001820191506020850194506020810190506116b5565b868310156116f757848901516116f3601f891682611600565b8355505b6001600288020188555050505b505050505050565b7f50617469656e7420616c72656164792072656769737465726564000000000000600082015250565b6000611742601a83610efe565b915061174d8261170c565b602082019050919050565b6000602082019050818103600083015261177181611735565b9050919050565b7f4e616d652063616e6e6f7420626520656d707479000000000000000000000000600082015250565b60006117ae601483610efe565b91506117b982611778565b602082019050919050565b600060208201905081810360008301526117dd816117a1565b9050919050565b7f416765206d7573742062652067726561746572207468616e2030000000000000600082015250565b600061181a601a83610efe565b9150611825826117e4565b602082019050919050565b600060208201905081810360008301526118498161180d565b9050919050565b7f4e6f7420617574686f72697a656420746f20766965772064657461696c730000600082015250565b6000611886601e83610efe565b915061189182611850565b602082019050919050565b600060208201905081810360008301526118b581611879565b905091905056fea2646970667358221220d5cf0843d6e1d8af2ad356a5b349bd0d6ba8132bafe20ca18eea922871bfa93264736f6c634300081c0033",
  "linkReferences": {},
  "deployedLinkReferences": {}
}